{
  "contractName": "SimpleCoin",
  "abi": [
    {
      "inputs": [
        {
          "internalType": "uint256",
          "name": "_initialSupply",
          "type": "uint256"
        }
      ],
      "stateMutability": "nonpayable",
      "type": "constructor"
    },
    {
      "anonymous": false,
      "inputs": [
        {
          "indexed": true,
          "internalType": "address",
          "name": "from",
          "type": "address"
        },
        {
          "indexed": true,
          "internalType": "address",
          "name": "to",
          "type": "address"
        },
        {
          "indexed": false,
          "internalType": "uint256",
          "name": "value",
          "type": "uint256"
        }
      ],
      "name": "Transfer",
      "type": "event"
    },
    {
      "inputs": [
        {
          "internalType": "address",
          "name": "",
          "type": "address"
        }
      ],
      "name": "coinBalance",
      "outputs": [
        {
          "internalType": "uint256",
          "name": "",
          "type": "uint256"
        }
      ],
      "stateMutability": "view",
      "type": "function"
    },
    {
      "inputs": [
        {
          "internalType": "address",
          "name": "_to",
          "type": "address"
        },
        {
          "internalType": "uint256",
          "name": "_amount",
          "type": "uint256"
        }
      ],
      "name": "transfer",
      "outputs": [],
      "stateMutability": "nonpayable",
      "type": "function"
    }
  ],
  "bytecode": "0x608060405234801561001057600080fd5b506040516105a23803806105a2833981810160405281019061003291906100b6565b806000803373ffffffffffffffffffffffffffffffffffffffff1673ffffffffffffffffffffffffffffffffffffffff16815260200190815260200160002081905550506100e3565b600080fd5b6000819050919050565b61009381610080565b811461009e57600080fd5b50565b6000815190506100b08161008a565b92915050565b6000602082840312156100cc576100cb61007b565b5b60006100da848285016100a1565b91505092915050565b6104b0806100f26000396000f3fe608060405234801561001057600080fd5b50600436106100365760003560e01c8063a9059cbb1461003b578063fabde80c14610057575b600080fd5b6100556004803603810190610050919061032a565b610087565b005b610071600480360381019061006c919061036a565b610279565b60405161007e91906103a6565b60405180910390f35b806000803373ffffffffffffffffffffffffffffffffffffffff1673ffffffffffffffffffffffffffffffffffffffff1681526020019081526020016000205410156100d257600080fd5b6000808373ffffffffffffffffffffffffffffffffffffffff1673ffffffffffffffffffffffffffffffffffffffff16815260200190815260200160002054816000808573ffffffffffffffffffffffffffffffffffffffff1673ffffffffffffffffffffffffffffffffffffffff1681526020019081526020016000205461015b91906103f0565b101561016657600080fd5b806000803373ffffffffffffffffffffffffffffffffffffffff1673ffffffffffffffffffffffffffffffffffffffff16815260200190815260200160002060008282546101b49190610446565b92505081905550806000808473ffffffffffffffffffffffffffffffffffffffff1673ffffffffffffffffffffffffffffffffffffffff168152602001908152602001600020600082825461020991906103f0565b925050819055508173ffffffffffffffffffffffffffffffffffffffff163373ffffffffffffffffffffffffffffffffffffffff167fddf252ad1be2c89b69c2b068fc378daa952ba7f163c4a11628f55a4df523b3ef8360405161026d91906103a6565b60405180910390a35050565b60006020528060005260406000206000915090505481565b600080fd5b600073ffffffffffffffffffffffffffffffffffffffff82169050919050565b60006102c182610296565b9050919050565b6102d1816102b6565b81146102dc57600080fd5b50565b6000813590506102ee816102c8565b92915050565b6000819050919050565b610307816102f4565b811461031257600080fd5b50565b600081359050610324816102fe565b92915050565b6000806040838503121561034157610340610291565b5b600061034f858286016102df565b925050602061036085828601610315565b9150509250929050565b6000602082840312156103805761037f610291565b5b600061038e848285016102df565b91505092915050565b6103a0816102f4565b82525050565b60006020820190506103bb6000830184610397565b92915050565b7f4e487b7100000000000000000000000000000000000000000000000000000000600052601160045260246000fd5b60006103fb826102f4565b9150610406836102f4565b9250827fffffffffffffffffffffffffffffffffffffffffffffffffffffffffffffffff0382111561043b5761043a6103c1565b5b828201905092915050565b6000610451826102f4565b915061045c836102f4565b92508282101561046f5761046e6103c1565b5b82820390509291505056fea2646970667358221220e0cd68f03d0cc27ea62ad79a70138ba975295f5fd40bb8c43b5d0b559011c8b764736f6c634300080a0033",
  "immutableReferences": {},
  "source": "// SPDX-License-Identifier: MIT\npragma solidity >=0.4.22 <0.9.0;\n\ncontract SimpleCoin {\n    mapping(address => uint256) public coinBalance;\n\n    event Transfer(address indexed from, address indexed to, uint256 value);\n\n    constructor(uint256 _initialSupply) {\n        coinBalance[msg.sender] = _initialSupply;\n    }\n\n    function transfer(address _to, uint256 _amount) public {\n        require(coinBalance[msg.sender] >= _amount);\n        require(coinBalance[_to] + _amount >= coinBalance[_to]);\n        coinBalance[msg.sender] -= _amount;\n        coinBalance[_to] += _amount;\n        emit Transfer(msg.sender, _to, _amount);\n    }\n}\n\n",
  "sourcePath": "/Users/wonjinsin/Documents/project/go-ethereum-dapp/deployingToGanache/contracts/simpleCoin.sol",
  "compiler": {
    "name": "solc",
    "version": "0.8.10+commit.fc410830.Emscripten.clang"
  },
  "schemaVersion": "3.4.3",
  "updatedAt": "2022-11-22T11:37:30.152Z",
  "devdoc": {
    "kind": "dev",
    "methods": {},
    "version": 1
  },
  "userdoc": {
    "kind": "user",
    "methods": {},
    "version": 1
  }
}